:10400000007F002019E30000C1E1000015E300007B
:1040100015E3000015E3000015E3000015E30000C0
:1040200000000000000000000000000015E3000098
:1040300015E300000000000015E3000015E3000098
:104040000000000000000000000000000000000070
:104050000000000000000000000000000000000060
:104060000000000000000000000000000000000050
:104070000000000000000000000000000000000040
:104080000000000000000000000000000000000030
:104090000000000000000000000000000000000020
:1040A0000000000000000000000000000000000010
:1040B0000000000000000000000000000000000000
:1040C00010B5054C237833B9044B13B10448AFF352
:1040D00000800123237010BDA0020020000000001A
:1040E0004886010008B5034B1BB103490348AFF3F1
:1040F000008008BD00000000A402002048860100E6
:10410000014800F00DBC00BFC802002001210D20B5
:1041100010B50CF087FD4FF416510F480BF010FA54
:104120000D480BF00BFA0028FAD00C4B1C682368E2
:1041300020469B68984720B9094907480CF008F8C1
:10414000FEE7084904480CF003F823682046DB6DBD
:104150000021BDE810401847B00E00202470010077
:10416000386F01004E6F0100014800F031BB00BF05
:10417000C8020020F0B5674B674E1C68236897B0F3
:104180001B692046984733783746002B40F09680CD
:10419000624D0CF05DFE2B68C01AB0F5FA7F07D3B4
:1041A0000CF056FE2860C0F340210D200CF052FDAB
:1041B000236803AD28465B6F21469847284600F0E8
:1041C00065FB00286BD0564956480BF0B2FF2946D4
:1041D000684600F0CDFB694652480BF0A5FF6846E3
:1041E0000CF027F850494F480BF0A3FF29466846CA
:1041F00000F032FB69464B480BF096FF68460CF026
:1042000018F84A4947480BF0A3FF2946684600F0D2
:10421000AFFB474968460CF0E7F8064668460CF0E5
:1042200008F8002E3BD023682046DB6E98474149B2
:104230003C480BF08DFF284600F01CFC064698B366
:104240003D4B9DF810201A719DF811205A719DF870
:1042500012209A719DF81320DA719DF814201A72B9
:104260009DF815205A729DF816209A729DF8172015
:10427000DA729DF818201A730D22A95C9954013244
:104280004B2AFAD101219DF8572039700D2083F86F
:104290004B200CF0DFFC294922480BF059FF28463F
:1042A00000F096FA17B0F0BD25491E480BF050FFFC
:1042B00023683146DB6D20469847F0E7214D0CF02E
:1042C000C7FD2B68C01AB0F57A7F1DD30CF0C0FD76
:1042D0002860194800F0EAFA1B49054611480BF01E
:1042E00028FF1A491A4B0F48002D08BF19460BF03A
:1042F0002FFF4DB917490B480BF02AFF3570236883
:104300002946DB6D2046984701210D200CF0A2FCC8
:10431000C8E700BF24700100C0020020C4020020D2
:10432000AF6E0100B00E0020BB6E0100BE6E01003A
:104330009C6E0100C06E0100C8020020D26E010018
:10434000E16E0100BC020020F76E0100A86E0100C2
:10435000AC6E01000E6F0100704710B55C21044681
:104360000EF004FF204610BD0B4A02601F21002200
:10437000C0E90921C0E90B2280F8342080F83520FB
:10438000C0E90E220264A0F8442080F84620C0E96B
:104390001222C0E915227047746F010000231F220A
:1043A000C0E90A23036380F83530C0E90E330364A3
:1043B00080F84630C0E91233C0E9153370478B6A84
:1043C0008362CB6AC3620B6B036391F8343080F86D
:1043D000343091F8353080F835308B6B8363CB6B9C
:1043E000C3630B6C0364B1F84430A0F8443091F817
:1043F000463080F846308B6C8364CB6CC364B1F874
:104400005030A0F850304B6D43658B6D836570471D
:1044100008B5FFF7D4FF08BD70B5054686B06846FD
:104420000E4603F009FCEC6C6846002CCCBF02344D
:10443000002403F03FFC0230241AA86A241808D490
:10444000AC62AE64684603F035FCE864012006B057
:1044500070BD0020FBE710B5036C23B190F8464017
:10446000023304B10233941C1B1B846A1B1958BF0E
:10447000C0E90F124FF000045BBF80F84640836232
:104480002046012010BD30B5046C24B190F8465090
:10449000023405B102341D1D641B856A64195FBFB7
:1044A000C0E90F230123A0F8441080F8463056BF1E
:1044B00084620020184630BD30B5846D002CCCBF1E
:1044C000043400241D1D641B856A64195DBFC0E9A6
:1044D0001523A0F850108462002058BF012030BD81
:1044E00070B50546806B0E4668B90024304610F062
:1044F0007BFB0230241AA86A24185DBFAC62AE634D
:104500000120002070BD10F06FFB0028EDD0A86BDB
:1045100010F06AFB841CE9E790F83530826A002BC2
:104520000CBF6FF0020300239B185FBF836201235F
:1045300080F8353080F8341054BF1846002070479A
:1045400004307047406A704790F83500704738B5BE
:104550000446406AC0F11F039342154608DB04304D
:1045600020440FF054FD626A2A446262012038BD83
:104570000020FCE770B50446406A0E461D46114611
:104580000233C0F11F029A420FDB23186A1C1A7112
:10459000821C0630626220445E712A460FF037FDAD
:1045A000636A2B446362012070BD0020FCE770B594
:1045B00086B00546684603F03FFB684603F07AFB89
:1045C000022804466846CCBF0626022603F070FB8C
:1045D0002346024631462846FFF7CCFF06B070BDA1
:1045E00013460A46FF21FFF7C5BF70B58AB01C46C7
:1045F0000AAB054623F8221D16461946022202A8D8
:104600000FF005FD224631460DF10A000FF0FFFCC8
:10461000A31C02AAFF212846FFF7ACFF0AB070BD19
:1046200070B58AB01C460AAB054623F8221D164613
:104630001946022202A80FF0EAFC224631460DF18B
:104640000A000FF0E4FCA31C02AA16212846FFF77B
:1046500091FF0AB070BD07B502AA012302F8011D3F
:104660001946FFF787FF03B05DF804FB70B50546F8
:1046700010460E46144610F0B7FA2246034631465D
:104680002846BDE87040FFF775BF70B5054608467F
:104690000C4610F0A9FA1D2807D9224628461D23EA
:1046A0000821BDE87040FFF765BF22462846092172
:1046B000BDE87040FFF7DABF38B5C16A0023054690
:1046C000436229B1026B1AB1BDE83840FFF73FBF22
:1046D00095F835307BB395F834102846FFF7BBFFCB
:1046E0000446A96C21B12846FFF761FF0440E4B2FB
:1046F000E96B61B12B6C53B195F84620EAB10A46DB
:104700002846B5F84410FFF770FF0440E4B26A6D24
:1047100042B1AB6D33B1B5F850102846FFF780FFBA
:104720000440E4B2A96B21B12846FFF7AEFF044074
:10473000E4B2204638BD0124D3E71A462846FFF7E5
:104740004FFFE2E70C4B10B504460360406838B1F8
:1047500000F012FA20B9606810B103685B689847EE
:10476000A06838B100F07BFF20B9A06810B10368E1
:104770005B689847204610BD846F010010B5044661
:10478000FFF7E0FF20460C210EF0F0FC204610BDA4
:10479000064B10B5C0E9003100230446836011B117
:1047A000084600F0E4F9204610BD00BF846F010008
:1047B000064B10B5036000230446C0E9013111B176
:1047C000084600F047FF204610BD00BF846F01007F
:1047D0007047FFFF024B186803681B69184700BF4A
:1047E00014730100024B186803685B69184700BF27
:1047F0001473010010B4054B01791B681A685469E1
:10480000421D184623465DF8044B184768710100A5
:1048100010B50B4B0446186821790368621D9B6A2A
:1048200098474FF6FF739842014606D0054B18682B
:104830000268BDE81040926A104794F94B0010BD21
:10484000687101001473010010B54C2104460EF08C
:104850008DFC204610BDFFFF10B58AB00446487994
:104860004B7A8A7A039088790290C8790190097A04
:10487000009105A8044910F06FF905A920460BF036
:1048800023FD20460AB010BD8C6F010007B5002340
:104890000622694605300093ADF804300FF0A8FBFE
:1048A000003018BF012003B05DF804FB10B50A4BBF
:1048B0000446186803681B699847236820461B6AEA
:1048C000984740B1054B217918680368621D5B6BFE
:1048D000BDE81040184710BD147301006871010055
:1048E00008B502790B799A4208D1062205310530C4
:1048F0000FF07EFBB0FA80F0400908BD0020FCE715
:1049000008B502790B799A4208D1062205310530A3
:104910000FF06EFB003018BF012008BD0120FCE73E
:1049200010B5074B036000217F230446C172017359
:1049300080F84B30062205300FF08DFB204610BD6D
:10494000B46F010010B50446084B236000231046E5
:10495000E37223737F23217184F84B3001460622D2
:10496000601D0FF054FB204610BD00BFB46F010066
:104970002DE9F0410F46144906460BF0A5FC3A7BA1
:1049800000218A421DDD7B1801F10208597B9B7BC7
:10499000083B012B01F1FF3410D8214630460BF0C3
:1049A00067FC0025AC420CDD08EB05033B443046B8
:1049B00093F90D100BF0EBFC0135F3E704EB080164
:1049C000DFE73046BDE8F081D37401002DE9F04FF8
:1049D00085B088462249019283460BF075FC00247D
:1049E000A14698F80C30A34235D908EB0403671CA4
:1049F000FFB25E7B08EB07035B7B9A1E012A25D979
:104A0000063B012B24D810250234E4B205FB05F344
:104A10000D34009344444FF0000A731EEAB253452C
:104A200016DD019989450BD1114620460393029268
:104A300003F042F9014658460BF07EFCDDE9022303
:104A4000009909F10109AA440C44E8E70225DBE7D3
:104A50003E44F4B2C5E7584605B0BDE8F08F00BF4C
:104A6000D374010010B500220446FFF7AFFF2046C3
:104A700010BDFFFF10B4054B01791B681A6814695B
:104A8000421D184623465DF8044B18476871010023
:104A900008B5134602798A4208D106221946053024
:104AA0000FF0A6FAB0FA80F0400908BD0020FCE73C
:104AB00010B50446012000FA01F1E1722273194693
:104AC00004F10D000FF0A3FA9DF9083084F84B3083
:104AD00010BD70B50D461146C27A42F01002044670
:104AE000C272007B0D302A4620441E460FF08FFA1A
:104AF000237B84F84B601D44257370BDC37A13F08B
:104B0000180F14BF012000207047FFFF03464068C4
:104B100008B100F023B8986808B100F099BD0148C9
:104B2000704700BFD3740100406870477047002091
:104B3000704710B5202104460EF018FB204610BD2A
:104B400010B5054B044640F8043B03F075F800230C
:104B5000E361204610BD00BFE86F0100043003F0A0
:104B6000A5B8043003F0A4B8043003F0A3B8C369B7
:104B70000133C36118467047C369013BC3611846DE
:104B8000704742F60300704790F82000704790F895
:104B900021007047406A7047806A7047808D704777
:104BA000436A9A422DE9F041A8BF1A46044682851D
:104BB00092B2806A0F460FF02AFA94F82E300BB1A9
:104BC000636AA38594F8203098060FD5A28E9107CA
:104BD0000CD51F4B218E186803685D6D0131A38DC4
:104BE000A26AAC4689B2BDE8F0416047DA0609D551
:104BF000A38EDB0706D5164B218E1868036801319A
:104C00001D6DECE794F83230F3B1124B186803686D
:104C100021465B6A9847104B1D682B6801461E6B46
:104C2000A38D3A462846B047094B186803681B6BAA
:104C3000984748B9094B186803689B68984718B1AA
:104C40002B6828465B6D9847A08DBDE8F08100BFBA
:104C500068710100B47201002470010068720100E3
:104C600038B5054608460C460FF0BEFF2146024601
:104C70002846BDE83840FFF793BF01867047008E95
:104C80007047008E013080B27047806B7047836B35
:104C9000994208D2C36B0022914202D05B68013274
:104CA000FAE71868704700207047FFFF30B5114BD6
:104CB00003600B7903710B4601F1490453F8052F8A
:104CC000C0F805209B88A0F80930CB7AC3720B7B13
:104CD000037300F10D0201F10D0353F8045B42F878
:104CE000045BA342F9D11B88138091F94B3080F803
:104CF0004B3030BDB46F010038B5044608200D4676
:104D00000EF047FA0023C0E9005363682BB96060D6
:104D10002368A0600133236038BDA3685860F7E7BB
:104D200070B5044615461E46FFF70AFF1E4B23606A
:104D3000B6F5007F4FEA152384F821303346A8BF2B
:104D40004FF40073002163629DF8103084F8205006
:104D5000A18584F82E30218684F8321084F833102F
:104D6000A186C4E90E112164102204F144000FF061
:104D700072F915F0300F11D02C200EF00AFA0B4901
:104D80000546022304F1340200F0D6F82846FFF766
:104D9000EEFE294604F13800FFF7AEFF30460FF073
:104DA000AFF8A062204670BD04700100F46F0100EE
:104DB00070B50446406800252368AB4206D94668B2
:104DC00008210EF0D3F901353046F5E70023C4E998
:104DD0000033A36070BDFFFF154B70B50446036040
:104DE0000025A36B9D4212D2E36B0022954202D0B4
:104DF0005B680132FAE71E683046FFF7BDFE20B956
:104E00001EB1336830465B6898470135E9E704F125
:104E100038052846FFF7CCFFA06A08B10FF078F8F4
:104E20002846FFF7C5FF2046FFF780FE204670BDED
:104E30000470010010B50446FFF7CEFF2046542150
:104E40000EF094F9204610BDF0B5C56C97B004463D
:104E500017461E467DB103A8FFF728FF2146684686
:104E6000FFF796FC694603A8A8476846FFF76AFC67
:104E700003A8FFF7ADFCA16A1C9A394430460FF035
:104E8000C6F817B0F0BD70B504460E4611460122B3
:104E900080F8332096B01A46FFF782FE256D85B163
:104EA000314603A8FFF702FF21466846FFF770FC72
:104EB000694603A8A8476846FFF744FC03A8FFF724
:104EC00087FC16B070BD30B5838E02F003029342AA
:104ED00097B0044617D08286002A0CBF4422402295
:104EE000024455687DB103A8FFF7E0FE21466846FD
:104EF000FFF74EFC694603A8A8476846FFF722FC67
:104F000003A8FFF765FC17B030BD4FF4245070477D
:104F100010B5034B03600446FFF708FE204610BDA2
:104F20001870010010B50446FFF7F2FF20462C214F
:104F30000EF01CF9204610BD70B504461D461646FD
:104F4000FFF7FEFD064B2360B5F5007FA8BF4FF4C9
:104F500000750023266265622385204670BD00BF70
:104F600018700100406A7047006A704701857047F9
:104F7000024B186803681B69184700BF14730100CF
:104F8000024B186803685B69184700BF147301007F
:104F900010B5064B186803681B699847044B1868DE
:104FA0000368BDE810401B6B184700BF1473010075
:104FB0006871010010B5064B186803681B699847B3
:104FC000044B18680368BDE81040DB6B184700BF4E
:104FD0001473010068710100024B186803689B6C30
:104FE000184700BF687101000C3070476830704787
:104FF000024B186803681B69184700BFB4720100B0
:10500000024B186803685B69184700BFB47201005F
:10501000024B186803689B69184700BFB47201000F
:10502000024B186803681B69184700BF68720100CB
:10503000024B186803685B69184700BF687201007B
:10504000024B186803685B6A184700BF687201006A
:1050500010B5074B0446186803681B699847054B51
:1050600019680B682046DB6C9847204610BD00BFCE
:10507000147301006871010010B5074B04461868ED
:1050800003681B699847054B19680B6820469B6AA3
:105090009847204610BD00BF1473010068720100DC
:1050A000024B18680368DB6A184700BF687201008A
:1050B000024B186803689B69184700BF30750100F0
:1050C000024B18680368DB69184700BF30750100A0
:1050D000024B186803681B6B184700BF6872010019
:1050E000024B18680368DB68184700BF687101004D
:1050F000024B186803681B6A184700BF307501002F
:10510000024B186803685B6A184700BF30750100DE
:10511000024B1B68C3F8F010704700BF1473010006
:10512000024B1B68C3F8F810704700BF14730100EE
:10513000024B1B68C3F8F410704700BF14730100E2
:10514000024B1B68C3F8EC10704700BF14730100DA
:10515000024B1B68C3F8FC10704700BF14730100BA
:10516000024B1B68C3F80011704700BF14730100A5
:10517000024B18680368D3F89C3018471473010079
:10518000024B18680368D3F8A03018471473010065
:10519000F0B52A4B1D682B6887B004469B682846EB
:1051A0009847064620B923682046DB6898470DE0FB
:1051B00064200BF009FE2B6828469B699847064639
:1051C00038B123682046DB6898470026304607B090
:1051D000F0BD05AA2B6801920DF112020092DF6961
:1051E00004AA0DF10E030DF10D012846B847002861
:1051F000D9D12B684FF0FF32D96A28466FF040436F
:1052000088470028CFD12B6840F2FF32196B28461F
:105210000023884706460028D3D12B680DF10F02E2
:105220005B6B0DF11601284698470028BBD1044B53
:10523000186803689B6898470126C7E71473010044
:10524000B47201000A4B10B5044618680368DB68A5
:105250009847084B18680368DB68984704F10C000E
:10526000FFF79CF804F16800BDE81040FFF796B81E
:10527000B47201001473010010B58CB000230593C3
:10528000ADF81830104B04461868036805A91B6A6E
:1052900098479DF8141003919DF8151002919DF800
:1052A000161001919DF817109DF818309DF81920DF
:1052B000009107A805490FF04FFC07A920460BF005
:1052C00003F820460CB010BD147301008C6F010070
:1052D0000C30FFF7A1B870B50368044608469D6A14
:1052E000FFF714FC2B4601462046BDE870401847E6
:1052F0000C30FFF7E1B80C30FFF7ADB80C30FFF71A
:10530000C2B86830FFF7ECB86830FFF781B810B565
:1053100000F10C042046FFF77BF82046FFF714F954
:1053200028B920460621BDE81040FFF7F5B810BDAA
:105330002DE9F74300F10C05044668342846FFF7D1
:10534000BBF92046FFF7B8F90E4B1E6833682846B4
:10535000DF68FFF7F5F880462846FFF7F3F80546C3
:105360002046FFF7EDF881462046FFF7EBF8C0B284
:1053700000904B46EAB241463046B84703B0BDE81C
:10538000F08300BF687201007FB5094B1C68236879
:10539000164601A89D690AF0C5FF324601A92046BC
:1053A000A847044601A80AF044FF204604B070BD97
:1053B000687201007FB5094B1C682368164601A876
:1053C000DD690AF0AFFF324601A92046A84704462E
:1053D00001A80AF02EFF204604B070BD68720100DB
:1053E0007FB5094B1C682368164601A81D6A0AF0A0
:1053F00099FF324601A92046A847044601A80AF0B1
:1054000018FF204604B070BD6872010002290BBF6E
:10541000044B054B186818680BBF036803685B6B87
:105420009B6D1847687201006871010038B5044629
:10543000084B44F80C3B05462046FEF795FF05F166
:105440006800FEF791FF06212046FFF765F8284621
:1054500038BD00BF307001000148FFF7E7BF00BF53
:105460001403002010B5064B044640F8683BFEF7D5
:1054700073FF04F10C00FEF76FFF204610BD00BF64
:105480003070010010B50446FFF7ECFF2046C42140
:105490000DF06CFE204610BD0148FFF7E3BF00BFD2
:1054A0001403002010B50B4B19680B6894B001A8C9
:1054B000DB6C984701A8FFF7E9F948B101A8FFF7AD
:1054C000A7F9044601A8FFF783F9204614B010BDE0
:1054D0007F24F7E7687101004FF420507047FFFF09
:1054E00010B50446FFF72CFB044B23600023C4E9EE
:1054F0000833C4E90A33204610BD00BFFC70010028
:10550000018442847047008C7047408C7047406A29
:105510007047436A994208D2836A0022914202D0BE
:105520005B680132FAE7186870470020704738B5A9
:10553000044608460D46FFF71AFB08200DF029FE29
:105540000023C0E90053A36A2BB9A062636AE0623A
:105550000133636238BDE36A5860F7E770B504460B
:10556000406800252368AB4206D9466808210DF043
:10557000FDFD01353046F5E70023C4E90033A360A3
:1055800070BD10B504462430FFF7E8FF0023236206
:1055900010BDFFFF134B70B5044603600025636A1E
:1055A0009D4212D2A36A0022954202D05B6801326A
:1055B000FAE71E683046FFF7DFFA20B91EB13368FC
:1055C00030465B6898470135E9E72046FFF7D9FF89
:1055D00004F12400FFF7C2FF2046FFF7A7FA204698
:1055E00070BD00BFFC70010010B50446FFF7D2FF8C
:1055F000204630210DF0BAFD204610BD10B5044BF9
:10560000044640F8043B0AF014FE204610BD00BFDB
:105610001071010010B50446FFF7F0FF2046142179
:105620000DF0A4FD204610BD38B504462546074BB5
:1056300045F8043B0846114602F03EFB0146284669
:105640000AF042FE00232361204638BD107101009C
:105650004068704703690133036118467047036966
:10566000013B03611846704770B504461E46BDF8FD
:105670001450FFF7D9FF0D4B2360BDF81030E382C3
:10568000BDF81830257663832D0A00230122A682F7
:105690006576C4E9073384F8243084F82520C4E90A
:1056A0000A33C4E90C33204670BD00BF20710100ED
:1056B000408B704738B5044608460D46FFF7CAFFD1
:1056C00008200DF066FD0023C0E90053E36A2BB902
:1056D000E062A36A20630133A36238BD236B586084
:1056E000F7E770B50446406800252368AB4206D949
:1056F000466808210DF03AFD01353046F5E70023F4
:10570000C4E90033A36070BD03688B4208D94368C5
:1057100000228A4202D05B680132FAE718687047BB
:1057200000207047F8B50546134B45F8283B044662
:105730000026A36A9E420ED231462846FFF7E4FFB8
:105740000746FFF78CFF20B91FB13B6838465B68FE
:1057500098470136EDE72846FFF7C3FFE06918B127
:105760000EF0D6FB0023E3612846FFF7BAFF204680
:10577000FFF744FF2046F8BD2071010010B5044634
:10578000FFF7D0FF204638210DF0F0FC204610BD79
:1057900070B50446036296B00D46C06919461646B8
:1057A0000FF07EF9E06110B9206216B070BD0123E0
:1057B00084F824300023314684F82530226A0EF024
:1057C00026FC666B002EF0D0194B03932B798DF8D5
:1057D00010302B4605F1490153F8052FCDF8112063
:1057E0009B88ADF81530EB7A8DF817302B7B8DF850
:1057F00018300DF1190205F10D0353F8040B42F8AE
:10580000040B8B42F9D11B88138095F84B308DF82F
:10581000573021466846FEF7CBFF694603A8B047DC
:105820006846FEF78FFF03A8FEF7D2FFBDE700BF73
:10583000B46F0100074B10B504460360806918B1CE
:105840000EF066FB0023A3612046FFF7D7FE20463B
:1058500010BD00BF3071010010B50446FFF7EAFF2C
:10586000204620210DF082FC204610BD38B50446AC
:105870001D46FFF7D9FE054B2360BDF81030E382CB
:105880000023A582C4E90633204638BD30710100EB
:10589000034A02600022C0E90122C260704700BFD3
:1058A0004071010038B5044608460D46FFF7D2FEA8
:1058B00008200DF06EFC0023C0E90053A3682BB94B
:1058C000A0606368E0600133636038BDE3685860DE
:1058D000F7E7406870474368994208D2836800221E
:1058E000914202D05B680132FAE7186870470020E5
:1058F000704770B50446406800252368AB4206D95E
:10590000466808210DF032FC01353046F5E70023EA
:10591000C4E90033A36070BD70B506460024736807
:105920009C4212D2B3680022944202D05B680132DA
:10593000FAE71D682846FFF792FE20B91DB12B68D3
:1059400028465B6898470134E9E7301DFFF7D1FF2F
:1059500070BDFFFF38B50446054B44F8043B0546CF
:10596000FFF7DAFF2046FFF7C4FF284638BD00BF27
:105970004071010010B50446FFF7ECFF20461021EE
:105980000DF0F4FB204610BD38B504461D46FFF768
:105990004BFE084B2360BDF81030E382A582064918
:1059A00004F118000AF090FC0023C4E90933E36213
:1059B000204638BD50710100D3740100808A7047C1
:1059C000C08A7047406A7047436A994208D2836A26
:1059D0000022914202D05B680132FAE718687047F2
:1059E0000020704738B5044608460D46FFF732FEE2
:1059F00008200DF0CEFB0023C0E90053A36A2BB9A9
:105A0000A062636AE0620133636238BDE36A586092
:105A1000F7E770B50446406800252368AB4206D915
:105A2000466808210DF0A2FB01353046F5E700235A
:105A3000C4E90033A36070BD154B70B50446036024
:105A40000025636A9D4212D2A36A0022954202D0C9
:105A50005B680132FAE71E683046FFF700FE20B9A6
:105A60001EB1336830465B6898470135E9E704F1B9
:105A700024052846FFF7CDFF2846FFF7CAFF04F1AB
:105A800018000AF0D6FB2046FFF7B8FD204670BD8F
:105A90005071010010B50446FFF7CEFF20463021BB
:105AA0000DF064FB204610BDA0F8A8107047C0F8A8
:105AB000AC1070472DE9FF41013A13F8014BD6B203
:105AC0000268CDE90233526C05460F4690470C2C14
:105AD00002462968029B79D02FD8052C69D01AD8A4
:105AE000022C60D00BD8012C53D006230093D1F8A0
:105AF000DC600023224639462846B0476EE0032C7E
:105B000054D0042CF1D10093D1F894403346394657
:105B10002846A04762E0092C52D007D8062C4BD06B
:105B2000082CE2D10093D1F8A440EFE70A2C4DD025
:105B30000B2CDAD1D1F8B4402DE0162C51D00FD86F
:105B4000112C40D005D8102CCFD10093D1F8B840FB
:105B5000DCE7122C18D0132CC7D1D1F8C8401AE0BA
:105B60001D2C04D00CD8182C3FD01B2CBDD1009379
:105B7000D1F8D4803346224639462846C0472DE026
:105B80001E2C36D0522CB0D1CDE90063D1F8C460C0
:105B900020E0D1F88440324639462846A44604B075
:105BA000BDE8F0416047D1F88840F4E7D1F8904073
:105BB000F1E7D1F89C40EEE70093D1F8A040A5E7CB
:105BC000D1F8AC40E7E7D1F8C040E4E7CDE90063A5
:105BD000D1F8B060234639462846B04704B0BDE846
:105BE000F0810093D1F8CC4090E70093D1F8D040F9
:105BF0008CE7D1F8D840CEE700F1E0034FF6FF7212
:105C0000B0F8B010914204D11C309842F8D1002075
:105C100070470120704708B503689B6A98474FF6A4
:105C2000FF73C01A18BF012008BDFFFF38B50A4B2B
:105C30000446186803681B690D469847204604F11E
:105C4000E003B0F8B020AA4204D01C309842F8D14A
:105C5000002038BD0120FCE71473010000F1E003CF
:105C600090F9C820002A04DB1C309842F8D10020AB
:105C700070470120704730B500231C2404FB030249
:105C8000B2F8B0508D4204D00133082BF6D1002079
:105C900002E092F8C800C00930BD30B500231C24D2
:105CA00004FB0302B2F8B0508D4202D1B2F8C0003A
:105CB00030BD0133082BF3D11720F9E71FB5ADF83C
:105CC0000D200268009302248DF80C400323D2F8C3
:105CD000F04003AAA04704B010BD1FB5ADF80920DD
:105CE000ADF80B30069A0368009204248DF8084042
:105CF00002AAD3F8F0400523A04704B010BD1FB599
:105D0000ADF80B30BDF81830ADF80920ADF80D3006
:105D1000079A0368009210248DF8084002AAD3F86D
:105D2000F0400723A04704B010BD1FB5ADF80B30FD
:105D3000BDF81830ADF80920ADF80D30079A0368AA
:105D4000009208248DF8084002AAD3F8F0400723F7
:105D5000A04704B010BD012380F890317047FFFFC9
:105D60001FB5ADF80A309DF818308DF80C30084B8F
:105D70008DF8092001208DF80800186802AA036830
:105D80000092D3F8944004220523A04704B010BD2C
:105D90001473010001299CBF6A3140F8212070472B
:105DA0001FB5ADF80D20026800930A248DF80C4051
:105DB0000323D2F8F04003AAA04704B010BD70B589
:105DC00000231C2505FB0304B4F8B0608E4204D008
:105DD0000133082BF6D1002002E084F8C82001200E
:105DE00070BD70B500231C2505FB03F40619B6F839
:105DF000B0608E4204D00133082BF5D1002010E0B2
:105E000004F1B3010144941D11F8015F04F8015934
:105E10009442F9D11C2202FB0303012093F8B33012
:105E2000237070BD10B5054B03600446D0F8940193
:105E300008B10EF06DF8204610BD00BF747101006E
:105E400010B50446FFF7EEFF20464FF4D8710DF071
:105E50008DF9204610BDFFFF2DE9F0431D4B1D6855
:105E60008BB006230F460421002490462A68009731
:105E7000CDE90713C821CDE905410C21CDE9033156
:105E8000CDE901840646D2F85490234630226021A1
:105E90002846C847D8B90AF0DBFF04460AF0D8FF05
:105EA000D6F8AC30001B98422B680DD21B692846EF
:105EB0009847336842465B6B39463046984700281E
:105EC000ECD00BB0BDE8F083DB6D2846984700208E
:105ED000F7E700BF14730100F8B503689B6A044636
:105EE00098474FF6FF73984206461ED0104B1D6828
:105EF0002B680146D3F89830284698470AF0A8FF47
:105F000007460AF0A5FFD4F8AC30C01B98420CD26B
:105F10002B6828461B699847236831469B6B2046AF
:105F200098470028EDD10120F8BD0020FCE700BF14
:105F3000147301002DE9F3410546089CA5F89C1156
:105F40001078C5F8A041013085F89E01002085F841
:105F5000A4011948066830680092D0F89480DBB23A
:105F6000042230460F46C04724B30AF071FF0446AE
:105F70000AF06EFFD5F8AC30001B984214D233689B
:105F800030461B6998472B6839469B6B28469847D3
:105F900050B195F8A4010028EAD04FF6FF73A5F898
:105FA0009C3102B0BDE8F0814FF6FF73A5F89C313B
:105FB0000020F6E72046F4E7147301002DE9F047CE
:105FC000994603689B6A044698474FF6FF739842C8
:105FD000074604D14FF000084046BDE8F08723682B
:105FE0000146D3F8E0302046984780460028F1D09B
:105FF00000251C2303FB054ABAF8B060BE4233D12A
:10600000DAF8C4303BB910200DF0C3F80746FFF7AB
:106010003FFCCAF8C4701C2303FB0545D5F8C450E7
:10602000002DD7D02846B9F1000F21D1FFF774FC1D
:1060300023682A46D3F8E47031464B462046B847D9
:106040000028C7D023682A46D3F8E83031462046D6
:1060500098470028BED023682A4631462046D3F808
:10606000EC30BDE8F04718470135082DC2D1B1E743
:10607000FFF72FFC002782465745D9DA39462846D4
:10608000FFF729FCFFF7E4FA49460EF085FD0028EA
:10609000A2D00137F0E7F0B5C5B004469DF828510D
:1060A000ADF80D200F4612218DF80C102A46194626
:1060B0000DF10F000DF0ABFF23684B9A0092D3F85F
:1060C000F06003AAEB1C39462046B04745B0F0BD4E
:1060D000F0B5C5B004469DF82851ADF80D200F4627
:1060E00052218DF80C102A4619460DF10F000DF0C3
:1060F0008EFF236800220092D3F8F06003AAEB1C05
:1061000039462046B04745B0F0BD70B50C461C2559
:106110001146002205FB02F3C618B6F8B060A6428D
:1061200004D00132082AF5D1002005E0C93303224A
:1061300018440DF06CFF012070BDF8B50E461746EF
:1061400000F1C90400F2A91534F8193CB34204D196
:106150000322214638460DF05AFF1C34AC42F3D1DD
:106160000020F8BD70B514461C25002205FB02F383
:10617000C618B6F8B0608E4204D00132082AF5D1B4
:10618000002007E003F1B4010144062220460DF08F
:106190003EFF012070BDF8B50346002410461C26C2
:1061A00006FB04F29D18B5F8B0708F4204D001349C
:1061B000082CF5D10020F8BD02F1BA0119444A1E9D
:1061C00012F8013F23B9C2F1BF035B19F2D0F7E720
:1061D00006220DF01CFF0120EDE7FFFF2DE9F04145
:1061E00096B005461C9E1F4600204FF01C0C4FF633
:1061F000FF7E0CFB00F42B19B3F8B080F04505D0FE
:1062000001300828F5D116B0BDE8F08183F8B2203E
:1062100004F1B4001722A3F8B010A3F8C02083F84B
:10622000B3700622314628440DF0F1FE721E05239C
:1062300001A912F8010F585413F1FF33F9D20F4B93
:106240001868BA3403682C44D3F890302246984733
:10625000014618B9062220460DF0FDFED5F8A841EA
:10626000002CD0D03246394603A8FEF76BFB03A8BA
:10627000A04703A8FEF7ACFAC5E700BF14730100FE
:106280002DE9F04106460F46904600F1B405002482
:1062900015F8013CBB420CD10622414628460DF0C0
:1062A000A7FE30B91C2303FB0464B4F8B000BDE8BA
:1062B000F0810134082C05F11C05E9D14FF6FF707F
:1062C000F5E72DE9F04106460F46904600F1B4058A
:1062D000002415F8013CBB420CD106224146284659
:1062E0000DF086FE30B91C2303FB0464D4F8C4000F
:1062F000BDE8F0810134082C05F11C05E9D100202E
:10630000F6E738B54FF6FF7204460B460020B3F8A7
:10631000B050954203D093F8B250012D08D001300F
:10632000082803F11C03F2D12046FEF7F9FA0AE02F
:106330001C23434303F1B4020B440A44204693F860
:10634000B310FEF7FFFA204638BD98B5B0F8A82084
:10635000D31DEC46DB08ACEBC30300AF9D460368DE
:10636000D3F88C406B46A047003018BF0120BD46D3
:1063700098BDFFFF2DE9F04F85B002AF9046DFF8E2
:106380009890F98000F1E00204463A601D4600262C
:10639000B4F8B0304FF6FF729342EA462FD0B4F80B
:1063A000C0300733DB08AAEBC3039D464FF01B0345
:1063B0008DF808300222B91D0DF109000DF027FEFD
:1063C000B4F8C030033B9BB2ADB29D4228BF1D461E
:1063D0002A4641460DF10B000DF019FED9F80000D8
:1063E000B4F8B01002680DF1080BCDF800B0EB1C4A
:1063F000D2F894B0DBB20422D8470136D5463B68C8
:106400001C349C42C4D1002E14BF284600200C37F7
:10641000BD46BDE8F08F00BF147301002DE9F04FB9
:1064200087B002AFDFF8D0A03A6000F5CA72064626
:10643000F98100F1B4047A601D464FF0000934F888
:10644000043CC7F808D04FF6FF72934247D0A389A7
:1064500007336A46DB08A2EBC3039D464FF01D03DA
:106460008DF80830022207F10E010DF109000DF040
:10647000CEFDA3893968033B9BB2ADB29D4228BFD4
:106480001D462A460DF10B000DF0C1FD0023DAF880
:10649000008086F89031D8F8002034F8041C0DF103
:1064A000080BEB1CCDF800B0D2F894B0DBB204229C
:1064B0004046D84796F890316BB9D8F8003040463E
:1064C0001B699847336814F8011C5B6B2246304601
:1064D00098470028EED1D7F808D009F101097B6868
:1064E0001C34A342ABD1B9F1000F14BF28460020E1
:1064F0001437BD46BDE8F08F147301002DE9F04F4D
:106500008BB002AFC7E90121BA6C7861042BC7F8E0
:1065100000D014880AD0036804220092D3F8DC501B
:106520002346A8472437BD46BDE8F08F7B68073374
:106530006A46DB08A2EBC3039D460DF1080905235B
:106540008DF80830002389F80130504B013CD3F816
:1065500000B0A4B20225DBF800305846DB6998474A
:10656000844260D2BB6C5B88A3425CD9DBF800300C
:1065700021461B6A584698470134A4B2BC8303687D
:106580009B688046984742F6030398425CD1404698
:10659000FEF777FBB7F81CA0AAEB0003D3F1000AC3
:1065A0004AEB030AD8F8003040469B6898473861A8
:1065B000BAF1000F02D1B0F5245F48D14046FEF792
:1065C000D3FA0228064614BF0223012399F80120BA
:1065D0000AB989F8013099F801209A4223D10222A0
:1065E00007F11C0109EB05000DF011FDAB1C9BB27E
:1065F00009EB0302FA60BAF1000F03D13A69B2F570
:10660000245F27D140463B61FEF7ABFA3246014694
:10661000F8680DF0FCFC3B699D19ADB202367B6851
:106620002E44B34297DA022D23D17A69BB6C1268EB
:106630001B880A210091D2F8DC40B96878690422ED
:10664000A047D7F800D06DE74FF0000AAAE702266E
:106650000123BBE7D8F8003040469B68984707F114
:106660002001022221F8020DF8680DF0D0FC04355B
:10667000D3E7074B18680368CDF80090D3F894402F
:10668000B968EBB20422A047DBE700BFB472010097
:10669000147301002DE9F04F8BB002AF052BBE6CD7
:1066A000C7F808D08346C7E9032134880BD80368AC
:1066B00004220092D3F8DC5006222346A847243750
:1066C000BD46BDE8F08FFA6807326946D208A1EBF3
:1066D000C202954607228DF80820B288B2F5205FE5
:1066E0000DF1080A0DD0DBF8002033880A21009153
:1066F000D2F8DC40396906225846A047D7F808D0BE
:10670000DDE7063B9BB27B612D4B013CD3F800904B
:10671000B31DA4B201257B60D9F800304846DB697F
:10672000984784423ED27388A3423BD9D9F80030BF
:1067300021461B6A4846984703689B6880469847ED
:10674000B388834227D14046FEF70EFA7B69984210
:1067500021D14046FEF705FA7A6979680DF048FCC8
:10676000C8B94046FEF7CFFE022207F11C01B883EC
:106770000AEB05000DF04BFC4046FEF7C6FE07F1A4
:106780002001022221F8020DA81C1AFA80F00DF057
:106790003EFC0435ADB2FA68EB1C9A4202DD0134CE
:1067A000A4B2B9E7012D9ED0064B18680368CDF856
:1067B00000A0D3F894403969EBB20422A0479DE7CA
:1067C000B4720100147301002DE9F04F8BB002AFD9
:1067D000062BBA60BA6CC7F80CD081468B46158878
:1067E00004D19388A3F52053012B0FD9D9F8003099
:1067F00010220092D3F8DC402B4659464846A04769
:10680000D7F80CD02437BD46BDE8F08FBB680733FE
:106810006A46DB08A2EBC3039D4602AE11238DF846
:106820000830002373703C4B013DD3F800A0ADB29B
:106830000224DAF800305046DB699847854254D28A
:10684000BB6C5B88AB4250D9DAF8003029461B6A32
:1068500050469847BB6C02689B887B619268804673
:1068600090477B6983423DD14046FEF77DF902287F
:10687000034614BF142306233B61737878610BB978
:106880003B7C737073783A6993422ED14046FEF791
:106890003AFE022207F11C01B88330190DF0B7FB54
:1068A0004046FEF732FE07F12001022221F8020DD8
:1068B000A01C0434A4B216FA80F00DF0A8FB331922
:1068C00040467B60FEF74DF97B687A6901461846C1
:1068D0000DF09DFB7B69BA681C443B69A4B223445C
:1068E0009A4202DB0135ADB2A3E7022C09D1BB6CA1
:1068F000D9F800201B880A210091D2F8DC40102230
:106900007BE7064B186803680096D3F8945004227E
:10691000E3B25946A84773E7B4720100147301004B
:106920002DE9F04F8BB002AF9046BA6C7861062B20
:10693000F960C7F808D0B2F800900BD003680422C1
:106940000092D3F8DC4008224B46A0472437BD46CE
:10695000BDE8F08F08F107036A46DB08A2EBC3032A
:106960009D4602AE09238DF8083000237370794BE1
:10697000D3F800A0BB6C09F1FF3904331FFA89F981
:1069800002247B60DAF800305046DB699847814585
:1069900080F09580BB6C5B884B4540F29080DAF8C4
:1069A000003049461B6A5046984709F101039BB2E3
:1069B0003B613B8ABB8303689B6805469847BB6C79
:1069C0009B8883422B6828469B6840F089809847C3
:1069D00042F60303984247D12846FEF752F9BB8B93
:1069E00083423CD02846FEF7BFF8737802288346DE
:1069F00014BF4FF015094FF007090BB986F8019045
:106A000073784B455BD1022207F11C0130190DF060
:106A1000FEFA2846FEF7B8F8A31C9BB207F1200146
:106A2000F054BB8BE01C0133053421F8023D0222F7
:106A3000A4B216FA80F00DF0EAFA331928463B604A
:106A4000FEF78FF85C443B68A4B201465A461846EC
:106A5000A1440DF0DCFAC84531DBD7F8109009F1FC
:106A600001091FFA89F98DE72B6828469B6898472A
:106A700042F602139842F2D1022207F11C013019AA
:106A80000DF0C5FA2846FEF76DFA0234A4B2A8EB61
:106A9000040880B21FFA88F8804528BF804628463F
:106AA00006EB0409FEF760FA4246014644444846B4
:106AB00008F102080DF0ABFAA4B286F80180022CAE
:106AC0003CD17A69BB6C12681B880A210091D2F80C
:106AD000DC40F96878690822A047D7F808D035E784
:106AE000984742F603039842B9D12846FEF73CF88E
:106AF00002288346B3D12846FEF733F85A460146AA
:106B000078680DF075FA0028A9D15A4607F11C01E2
:106B100030190DF07CFA2846FEF740F80234A4B292
:106B2000A8EB04081FFA88F880B2804528BF804689
:106B3000284606EB0409FEF72FF8B5E7064B186860
:106B400003680096D3F89450F968E3B20422A8478A
:106B5000C3E700BFB4720100147301002DE9F043D4
:106B6000012B97B0044602AF0E461546E8460BD0FF
:106B7000036804220092D3F8DC4018220023A047C7
:106B80005437BD46BDE8F083B0F8921129B33B6F8E
:106B90001B78DB0721D5204B1868036801391B6A75
:106BA0009847002381461C2000FB03F2A118B1F88E
:106BB000B0C0B4452CD1B432224491F8B310381D82
:106BC000FDF7C0FE4846B4F89831D4F89421391D39
:106BD000FEF759F9381DFDF7FBFD00230735A4F832
:106BE0009231A4F89831ED086B46A3EBC5039D469E
:106BF00019238DF80830094B186802AA036800921F
:106C0000D3F89440042201233146A047C546B7E794
:106C10000133082BC8D1E0E7B472010014730100FE
:106C20002DE9F04F87B002AF032B04460D467A6082
:106C30001E46C7F80CD00DD8036804220092D3F882
:106C4000DC4016220023A047D7F80CD01437BD46ED
:106C5000BDE8F08FBB6B1B883B811FFA83F8BB6BD1
:106C6000B3F802B04B4BD3F80090D9F80030484647
:106C7000DB69984708F1FF318BB2834206D923685C
:106C80000A220092D3F8DC60434620E0D9F80030B5
:106C900048461B6A984703689B688146984742F6B6
:106CA0000303984202D023680B22EAE74846FDF727
:106CB000E8FF40458246F6D14846FDF765FF0307E9
:106CC0000AD4236803210091D3F8DC6053461622CE
:106CD00029462046B047B7E7B4F89231E3B94846B1
:106CE0003B60FDF757FF01468246D4F894010DF052
:106CF000D7FE3B683A89A4F89221C4F89401A4F81D
:106D00009831524619460DF0A6F9B4F898315B4512
:106D100007D023680722B4E75345F6D023680E2135
:106D2000D1E7331F5FFA83FA0BEB0A024846BA60D9
:106D3000FDF730FFBA6880B28242EADCBB6BD4F860
:106D400094015246191D58440DF061F9B4F8982188
:106D5000B96B0AEB0203A4F898317B6807336A46E3
:106D6000DB08A2EBC3039D4617238DF8083032469B
:106D70000DF109000DF04BF9074B186802AC0268E1
:106D80000094731CD2F89440DBB204222946A04739
:106D90005AE700BFB4720100147301002DE9F04FEF
:106DA0008FB002AFC7E90021FB60B0F8A830F968E6
:106DB00007336A46DB08A2EBC30307F118059D46BB
:106DC0008346284600F038FF0DF108090124BD6014
:106DD000DBF80030CDF804904FF420520092D3F845
:106DE000BC5079684FF6FF7322465846A8470546BF
:106DF00020B199F80030112B04D001203437BD4662
:106E0000BDE8F08F99F801307B61A3F104080223FB
:106E10005FFA88F809F102063B614FF6FF7A3B6999
:106E2000AB4204DB4FF6FF739A45D1D0E5E7FB6830
:106E3000E3B930200CF0ADF93146728831F8043BEB
:106E4000009204464246FEF79FFD21463868FEF751
:106E500029FD7488D7E904320134A4B2002C13440C
:106E600008BF4FF0000A3B611644D8E7B86800F04D
:106E700021FF4045EDD1B86800F01AFF42460146B7
:106E8000301D0DF0B5F80028D3D0E2E72DE9F04F22
:106E90008DB0B0F8A83004AFC7E9042107336A46C3
:106EA000DB08A2EBC3039D4682463869FEF711FD5D
:106EB0000DF11009F8604FF00008FB6898454ADAB8
:106EC00041463869FEF707FDB861FEF777FD0646D3
:106ED000B869FEF775FDB860DAF80030CDF80490B7
:106EE00042F603020092D3F8A8407969BB683246A3
:106EF0005046A047054678B399F80030092B27D1B2
:106F000099F80130FB61053BDBB27B6009F10204BB
:106F10004FF0020BAB45DFDA38200CF03AF9B4F849
:106F200003300293A37801932388009306467B697C
:106F30007A68611DFEF798FB3146B869FEF752FD8D
:106F4000B4F80360FB690136B6B29B441C44E1E728
:106F500008F10108B1E701202437BD46BDE8F08FF4
:106F60002DE9F04F8FB0B0F8A83002AF0733C7E972
:106F70000421DB086A46A2EBC3039D4602AB8246AE
:106F80003869FB62FEF7A5FC4FF0000BF860FB6868
:106F90009B456EDA59463869FEF79DFC7862FEF72C
:106FA0000FFDB860786AFEF70DFD431E38620026BB
:106FB0007B603B6A9E4259DA3146786AFEF704FDEF
:106FC0007B68F8619E424AD0711C786AFEF7FCFC2F
:106FD0000546F869FEF76CFB013084B2002D40D005
:106FE0002846FEF765FBB862BB6AA3423CD3DAF8D9
:106FF0000030FA6A0092D3F898507969BB6A224649
:107000005046A8470546002834D0FB6A1B78052B5C
:107010002AD1FB6A93F801904FEA8903BB61FB6AAE
:107020004FF0020903F10208A945E0DA20200CF034
:10703000B0F8B8F800300093022208EB02010446D1
:107040007B69FEF713FC2146F869FEF733FBB8F8BD
:107050000040BB690134A4B299449844E4E7002598
:10706000B7E7BB68BB62BFE70136A2E70BF1010BD4
:107070008DE701203437BD46BDE8F08F022A7FB589
:1070800004460D4609D0036804220092D3F8DC4080
:1070900002220023A04704B070BD1B88B0F8A820CE
:1070A0009A4228BF1A461C20002300FB0341B1F876
:1070B000B060AE4211D1A1F8C020ADF80D20094A50
:1070C000032310688DF80C30026803A90091D2F8F0
:1070D000944029460422A047DDE70133082BE4D180
:1070E000EBE700BF14730100042A10B5044616D163
:1070F000B0F89C01884212D194F89E0119780138A9
:1071000088420CD1D4F8A01101200870D4F8A00155
:10711000194601300CF07BFF052384F8A43110BD23
:10712000022A70B504461ED100221C2505FB024030
:10713000B0F8B0608E4217D11A88A0F8C020B4F819
:107140009C218A420FD194F89E51032D0BD1D4F883
:10715000A0211570D4F8A0010222194601300CF0CC
:1071600056FF84F8A45170BD0132082ADED1E6E74B
:10717000012A38B50446154613D9B0F89C01884257
:107180000FD194F89E0105280BD1D4F8A0110870F6
:10719000D4F8A0011946013001350CF038FF84F80D
:1071A000A45138BD012A38B50446154613D9B0F8A4
:1071B0009C0188420FD194F89E0111280BD1D4F87C
:1071C000A0110870D4F8A0011946013001350CF067
:1071D0001EFF84F8A45138BD38B50446B0F89C01B0
:1071E000884215460FD194F89E110B290BD1D4F883
:1071F000A0010170D4F8A0011946013001350CF04E
:1072000006FF84F8A45138BD38B5044615469AB136
:10721000B0F89C0188420FD194F89E0109280BD147
:10722000D4F8A0110870D4F8A00119460130013536
:107230000CF0EDFE84F8A45138BD10B504469AB99F
:10724000B0F89C0188420FD194F89E0113280BD10D
:10725000D4F8A0110870D4F8A001194601300CF040
:10726000D6FE012384F8A43110BDFFFF70B505469A
:1072700090F8850094B0F8B1104B114C1868B4F830
:107280004410036801391B6A984704F14702064617
:1072900094F8461001A8FDF755FB94F84D3004F121
:1072A0004E0201A93046FDF7EEFD01A8FDF790FA68
:1072B000002385F88530012014B070BDB472010040
:1072C000D80300202DE9F04F9BB0012B8846049293
:1072D00061D9249A023B1688059300F5CA7200F121
:1072E000B404039234F8043C43453FD12569002D92
:1072F00040D02846FEF7EDFA4FF0000A8146D1450E
:1073000034DD51462846FEF7E6FA0746FEF756FBFF
:10731000864228D93846FEF753FB864223D83846A2
:10732000FEF750FB249B8146002503F1020AA94584
:107330001CDD29463846FEF747FB8346FEF7B8F9C1
:1073400086420ED1224614F8011C07A8FDF7FAFA6E
:107350005846059B524607A9FEF71AFA07A8FDF7FB
:1073600037FA0135E3E70AF1010AC8E7039B1C3449
:10737000A342B7D1049B1D2B0DD11AAB1E2203F8DB
:107380004C2D064A106802680093D2F894400123FD
:1073900004224146A0471BB0BDE8F08F14730100E2
:1073A000234B2DE9F041044640F8863B03F0A6F854
:1073B00004F1870003F0A2F81E4B04F1980503F1D5
:1073C0001006186859682A4603C20833B3421546A6
:1073D000F7D117230026A4F8A83041F28833C4F867
:1073E000AC30A4F89261C4F89461A4F8986104F1F7
:1073F000B40504F5CA774FF6FF7825F8048C05F834
:10740000026C05F8016C2846062200210CF023FED0
:107410001723AB812E612E751C35BD42EDD108229C
:10742000002104F5D4700CF016FE2046BDE8F08172
:1074300074710100587101002DE9F04700230546E1
:10744000A6B01E464FF0FF341C204FF6FF7700FB1E
:107450000352B2F8B0208A4208BF1C46BA4203F178
:10746000010318BF0136082BF1D1631C6BD01C231C
:10747000634303F1B4072B442F443A4693F8B31007
:107480006846FDF75FFA012E2CD1304B1E684FF095
:10749000000842F6030A33683046DB6998471FFA52
:1074A00088F9484519D9336849461B6A30469847D8
:1074B00003689B688146984750450BD1694613A8DD
:1074C000FDF7F4FB4846002213A9FDF7FCFC13A8C6
:1074D000FDF77EF908F10108DDE70023A5F89231F8
:1074E000A5F89831D5F8AC6146B1694613A8FDF707
:1074F000DDFB13A8B04713A8FDF76AF91C2606FBAD
:1075000004564FF6FF73C6F8B03006220021384605
:107510000CF0A1FD1723D6F8C400A6F8C030002354
:10752000A6F8C83086F8CA3086F8CB3010B10368A8
:107530005B6898471C2303FB04540023C4F8C43041
:107540006846FDF745F926B0BDE8F087B472010042
:107550002DE9F04FA9B000F5CA73DFF8E4B001934C
:10756000064600F1B4044FF000084FF6FF7934F8F6
:10757000041C494556D0314B18680368D3F898303D
:107580009847054600284DD1224614F8011C02A850
:10759000FDF7D8F9DBF8007008F101083B683846C0
:1075A000DB6998471FFA85FA50451AD93B6851465E
:1075B0001B6A38469847026892688246904742F6AE
:1075C000030398420BD102A915A8FDF76FFB5046A3
:1075D000002215A9FDF777FC15A8FDF7F9F801358C
:1075E000DCE70025A6F89251A6F898510622294614
:1075F00024F8049C04F8025C04F8015C20460CF0BA
:107600002AFD06222946A0180CF025FD2069172323
:10761000A38110B103685B6898470023236102A827
:10762000FDF7D6F8019B1C349C42A0D1B8F1000FA5
:10763000D4BF0020012029B0BDE8F08F14730100F1
:10764000B472010010B500231C2101FB030292F863
:10765000C840A40702D5B2F8B00010BD0133082B12
:10766000F3D10920F9E730B500231C2404FB030201
:10767000B2F8B0508D4204D00133082BF6D100206F
:1076800001E092F8C80030BD2DE9F04F99B002AF8B
:10769000044697F880A0BAF1010F884616461D46A9
:1076A0000DD8122B07D1036804220092D3F8DC40D6
:1076B0002A460023A0475C37BD46BDE8F08F022272
:1076C000D7F8841007F10A000CF0A1FCA14BB7F821
:1076D0000A90D3F800B0DBF800305846DB699847D1
:1076E00009F1FF391FFA89F981450CD9122DE2D130
:1076F0007B8922680A210091D2F8DC6041462A4643
:107700002046B047D7E77989DBF8003001391B6A9A
:107710005846984703689B688146984742F603039A
:10772000984240F0CE804846FDF7ABFA7B89834211
:10773000484601D1122D76D1FDF726FA010740F116
:1077400002814846FDF723FA10F0020010D04146AE
:107750002046FFF788FF03066BD422687B890F2140
:107760000091D2F8DCB0204612224146D8470120D1
:1077700000221C2101FB02FB04EB0B03B3F8B0C099
:10778000C44540F08280D7F88420AAF1020A023270
:107790000BF1B40B5FFA8AFA7A60A34400284AD04E
:1077A000002284F8852007F10A01022204F1440036
:1077B0003B600CF02CFC94F885203B68D01C023216
:1077C000C0B254FA82F293F8B33084F885004430A2
:1077D00082F844305946062220440CF018FC94F8F4
:1077E00085007968831D54FA83F30730C0B283F8AB
:1077F00044A084F885004430524620440CF007FC35
:1078000094F88530122D9A4484F885A07FF453AF04
:1078100007366D46F608A5EBC6039D46132302A95D
:107820008DF8083044E0FDF7AFF942077FF543AF2C
:1078300087E700209CE793F8B3105A4607F10C0045
:10784000FDF780F853467A6807F10C014846FDF7CA
:107850001AFB07F10C00FCF7BBFF122D7FF42BAFD6
:1078600007366D46F608A5EBC6039D46132302A90D
:107870008DF80830384B186803680091D3F89440AD
:10788000042201234146A04719E00132082A7FF46F
:1078900071AF122D7FF40FAF07366D46F608A5EBDA
:1078A000C6039D46132302A98DF808300028E1D0B5
:1078B0000122201D0CF0ABFB012384F88430AD467F
:1078C000F9E6D9F8003048469B689847B0F5245F40
:1078D00039D14846FDF748F9022834D14846FDF72A
:1078E00040F9028842F602139A422CD17989DBF8DA
:1078F000003002391B6A5846984703689B688146E6
:10790000984742F6030398421DD100231C2000FB38
:1079100003F2A118B1F8B0C0C44510D1B43222446A
:1079200091F8B31007F10C00FDF70CF8D7F884308C
:1079300007F10C015A884846FDF7C5FA89E701337B
:10794000082BE4D189E7122D7FF4B5AE7B8922683C
:107950000321D0E6B4720100147301002DE9F04F49
:107960009DB0984602AFB8F10A0F04460E46154680
:1079700097F89030D7F89490C7F80CD00FD1022B1D
:1079800017D0036804220092D3F8DC40424600235B
:10799000A047D7F80CD06C37BD46BDE8F08F042B5C
:1079A00007D0036804220092D3F8DC400C220023A5
:1079B000EEE74946022207F11A000CF028FB964B2D
:1079C000B7F81AA0D3F800B0DBF80030B8F10A0F0E
:1079D000DB6918BFB9F80290584608BF4FF000099C
:1079E00098470AF1FF3A1FFA8AFA82457B8B06D93B
:1079F00022680A210091D2F8DC50424627E005F1C6
:107A0000FF3A0735ED086A46A2EBC5029546B8F184
:107A10000A0F694614BF0D220B2201F8082FDBF86C
:107A200000207961126A591E5846904703689B6886
:107A300005469847B0F5205F2BD1B9F1000F0AD069
:107A400022687B8B04210091D2F8DC500B22314656
:107A50002046A8479DE72846FDF786F88046284639
:107A6000FDF77FF8424601460DF109000CF0CFFA10
:107A700008F101081FFA88F8684B7A6918680368EA
:107A80000092D3F8944004225FFA88F33146A0476D
:107A90007FE742F60303984240F09B802846FDF7BB
:107AA000EEF87B8B834225D1B9F1000F02D022681A
:107AB0000B219FE72846FDF767F87B695870284639
:107AC000FDF7DFF807F16801022221F84C0D0DF1F6
:107AD0000A000CF09CFA2846FDF746F88046284636
:107AE000FDF73FF84246014603A80CF090FA08F172
:107AF0000408BFE72846FDF747F8820703D47B8BCD
:107B00002268022176E72846FDF741F810F00200CE
:107B100012D031462046FFF7A6FD030617D422688F
:107B20007B8B0F210091D2F8DCB0314642462046D3
:107B3000D84701233B6100E038612846FDF72EF865
:107B400083B2994505D37B8B2268072152E7002336
:107B5000F0E780B2A0EB09008245A8BF82461FFA79
:107B60008AF3BB6004F5CA7304F1B40B7B604FF079
:107B700001081FFA8AFA3BF8043CB34218D15A466E
:107B80001BF8011C07F11C00FCF7DCFECDF800A07F
:107B90007B694A46434407F11C012846FDF754F926
:107BA00007F11C00FCF714FEBB6898441FFA88F824
:107BB0007B680BF11C0B9B45DDD13B69002B3FF42F
:107BC0005BAF42467969201D0CF021FA84F884806D
:107BD000DFE6B0F5245F1BD12846FDF7C3F983B279
:107BE0009945B0D280B2A0EB0908C2452846A8BF8B
:107BF000C246FDF7B9F91FFA8AF200EB09010AF152
:107C0000010A0DF109000CF002FA1FFA8AF833E7B5
:107C10004FF0010830E700BFB47201001473010097
:107C20000148FFF7BDBB00BFD80300200148FEF7A5
:107C3000F9B800BFD803002073B5002504460E46EE
:107C400040F8041B10222946ADF804508DF8065068
:107C50000CF001FA257526B330460CF0C5FF451E21
:107C6000002D237D19DB0F2B1ED873572D2B02D12E
:107C70000135023DF4E77219002112F8012C8DF84C
:107C8000042001A810228DF805300DF0C1F8237DE5
:107C9000E218013310712375EBE7022B04D802239D
:107CA0002375204602B070BD1023F9E700687047C5
:107CB00004307047007D70472DE9F047144C804632
:107CC0004D1E4FF4AA594FF02D0A6A1C1AD018F80D
:107CD000057010222146380908F0F1FF1022611CBE
:107CE00007F00F0008F0EBFF0C2D04F1020606DC94
:107CF00029FA05F3DB0744BFE61C84F802A0013D26
:107D00003446E2E7002323700148BDE8F08700BF56
:107D100088050020007970472DE9F04F89B0904622
:107D20000DF1180B027A9DF848601F4600230546A6
:107D300089460693ABF80430FAB99E4214BF4FF05F
:107D4000020A4FF0030A2B6828461B699847194B13
:107D5000EA881C680021072023680091CDE903010F
:107D6000CDE9011B2046D3F83CB011465346D84715
:107D700028B1002009B0BDE8F08F9A46E3E72368F8
:107D80004A461B6C4146204698470028F1D123689B
:107D90003A465B6C3146204698470028E9D1236873
:107DA00001219B6C204698470028E2D101202871D0
:107DB000E0E700BF14730100034B00210171186854
:107DC00003689B6C184700BF147301002DE9F34151
:107DD000124B1D682B6801221B6D07460E46284674
:107DE0000021002498472B68CDE90044D3F84C804B
:107DF00020231A4601212846C04768B9012179711C
:107E00002B6886EA01021B6D28469847B0FA80F07D
:107E1000400902B0BDE8F0812046FAE71473010082
:107E2000C180704701727047022908BFC260704765
:107E300070B50B4D04461C30164608F064FA29460E
:107E400004F1280008F078FA294604F1340008F01B
:107E500073FA2368314620465B69BDE870401847D5
:107E6000D37401002DE9F0410C4D04460F461C303F
:107E70002946164608F060FA394604F1280008F051
:107E800042FA294604F1340008F056FA23683146D4
:107E900020465B69BDE8F041184700BFD37401007C
:107EA0002DE9F0410C4D04460F461C30294616467C
:107EB00008F042FA294604F1280008F03DFA394654
:107EC00004F1340008F01FFA2368314620465B694C
:107ED000BDE8F041184700BFD37401007FB5C36B04
:107EE00004460D468BB10B6801A89B69984701A910
:107EF00004F1340008F08CFA064601A808F099F95C
:107F00001EB90024204604B070BD636A73B12946CF
:107F100001A8FCF72DFD01A904F11C0008F057FA97
:107F2000064601A808F085F9002EEAD0236B6BB154
:107F3000294601A8FCF796FD01A904F1280008F0E4
:107F400067FA044601A808F074F9DBE70124D9E7D1
:107F500038B5A0220E4D0F4B0360C28000230122D2
:107F60000446037143710272C0E90333C0E905336B
:107F700029461C3008F0A8F9294604F1280008F029
:107F8000A3F9294604F1340008F09EF9204638BDD3
:107F9000D37401007472010003688B4208D94368EE
:107FA00000228A4202D05B680132FAE71868704703
:107FB0000020704770B50446406800252368AB4236
:107FC00006D9466808210BF0D1F801353046F5E7AF
:107FD0000023C4E90033A36070BDFFFF10B50A4B56
:107FE000044640F8343B08F024F904F1280008F076
:107FF00020F904F11C0008F01CF904F11000FFF74F
:10800000D9FF204610BD00BF7472010010B50446B0
:10801000FFF7E4FF204640210BF0A8F8204610BDF2
:1080200070B50E4B05461868036800221B6D11469B
:108030000024984705F110066C712B699C4209D207
:1080400021463046FFF7A8FF10B103685B689847E8
:108050000134F2E73046FFF7ADFF70BD1473010045
:1080600003688B4270B504461AD900224068134653
:108070008A42456803D0034601322846F8E706687D
:1080800063B96560A268824208BFA36008210BF053
:108090006DF82368013B2360304670BD5D60F1E7F9
:1080A0000026F9E72DE9F041074694B00D4600247B
:1080B00001F110082B699C422AD221464046FFF765
:1080C0006BFF0646FCF71AFD00B3314601A8FCF72A
:1080D000EDFD21464046FFF7C3FF1EB13368304631
:1080E0005B6898472B6801A9DB6B2846984750B11D
:1080F00001A93846FCF7DAFD01A8FCF769FB384610
:1081000014B0BDE8F08101A8FCF762FB0134D1E7AF
:108110003846FCF705FCF2E72DE9F04FC568ABB037
:1081200004460F4692469B469DF8D0809DF9D89014
:108130002DB3032922D11A46514604A8FCF702FCAC
:10814000CDF80090359B4246394604A8FCF7B0FCB8
:10815000236804A9DB6B2046984748B104A917A8F7
:10816000E468FCF7A3FD17A8A04717A8FCF730FBAD
:1081700004A8FCF72DFB2BB0BDE8F08F002504F11F
:1081800010032269AA420DD9184629460393FFF726
:1081900003FF5A4651460646FCF77AFC039B00282B
:1081A00041D006BB23691F2B08D9002104F1100020
:1081B000FFF756FF10B103685B6898474C200AF040
:1081C000E8FF5A4651460646FCF7BCFB08200AF079
:1081D000E0FF0023C0E90063636933BB6061256988
:1081E000A0616B1C2361042F22D0CDF80090359B39
:1081F000424639463046FCF75BFC3046FCF77EFCD5
:108200000028B8D0E368002BB5D0314604A8FCF7AD
:108210004DFD294604F11000FFF722FF3368304678
:108220005B68984794E70135ABE7A3695860D6E7E8
:108230004B46359A41463046FCF74BFCDDE770B4BF
:1082400046799DF80C409DF9145026B1059503948C
:1082500070BCFFF761BF70BC7047FFFF0148FFF7BC
:1082600077BE00BFB00500200148FFF7B7BE00BFD2
:10827000B0050020406870474368994208D283687F
:108280000022914202D05B680132FAE71868704719
:108290000020704773B5044630200AF07AFF324957
:1082A0000546FDF71DF9E56154200AF072FF00252F
:1082B0000646142302222D490095FCF731FD266263
:1082C00054200AF066FF02231A4606462849009504
:1082D000FCF726FD666230200AF05BFF2549064662
:1082E000FDF7FEF8A66254200AF053FF2022042373
:1082F000214900950646FCF713FDE662E069FCF7AC
:1083000036FC206AFCF733FC606AFCF730FCA06A9C
:10831000FCF72DFCE06AFCF72AFCD4E90701FDF725
:1083200006F9616AE069FDF702F9D4E90A01FDF78F
:10833000FEF8236811491B6920469847236829469F
:1083400020465B69984723682046DB6A9847236884
:10835000E1699B6A204698472368A16A9B6A204688
:1083600002B0BDE870401847B8720100BD7201004C
:10837000C2720100C7720100CC720100D17201000B
:1083800010B50446C06948B1FCF7F6FB30B9E069A6
:1083900010B103685B6898470023E361206A48B125
:1083A000FCF7EAFB30B9206A10B103685B689847B4
:1083B00000232362606A48B1FCF7DEFB30B9606AD3
:1083C00010B103685B68984700236362A06A48B1F4
:1083D000FCF7D2FB30B9A06A10B103685B6898471C
:1083E0000023A362E06A48B1FCF7C6FB30B9E06A3B
:1083F00010B103685B6898470023E3622368204656
:10840000DB6ABDE810401847006AFCF729BC07B5D5
:1084100002AB022223F8021D406A1946FCF7C0FB9A
:1084200003B05DF804FB10B504460846FCF77CFB7E
:10843000014628B1236820469B6ABDE810401847D2
:1084400010BD2DE9F0410025074688462C463B68C3
:108450003846DB699847A84211D93B6829461B6A10
:108460003846984703689B6806469847B0F5205FF2
:1084700002D0464503D0264601353446E7E720467C
:108480003CB1FCF771FB0228204604D1FCF769FBE4
:108490000088BDE8F081FCF764FB4089F9E7FFFF45
:1084A000074A02600022C0E90122C0E90322C0E9B4
:1084B0000522C0E90722C0E90922C262704700BF55
:1084C000E472010038B5044608200D460AF061FE4A
:1084D0000023C0E9005363682BB960602368A06083
:1084E0000133236038BDA3685860F7E72DE9F84FE2
:1084F00004460D46084604F10408FCF738FB2946FB
:108500004046FFF7DFFF08200AF043FE0023C0E9E2
:1085100000536369002B47D160612369A061013377
:10852000236123682046DB69984700271FFA80FBF8
:108530002846FCF7ECFFB8423BD939462846FCF701
:10854000E8FF0646FCF713FB31464046FFF7BAFF4B
:1085500023682046DB69984781B23046FCF78DFBE3
:108560003046FCF704FB31464046FFF7ABFF4FF0C7
:1085700000093046FCF789FB484518D94946304682
:10858000FCF785FB8246FCF7F2FA51464046FFF7BE
:1085900099FF23682046DB69984781B25046FCF773
:1085A000E5FC09F10109E4E7A3695860B5E7013783
:1085B000BEE723682046DB699847594682B22846C1
:1085C000BDE8F84FFCF79CBF70B504464068002535
:1085D0002368AB4206D9466808210AF0C7FD013579
:1085E0003046F5E70023C4E90033A36070BD70B5E1
:1085F0000446406800252368AB4206D94668082136
:108600000AF0B4FD01353046F5E70023C4E9003334
:10861000A36070BD38B50546064B45F8103B0446CF
:10862000FFF7AEFE2846FFF7E2FF201DFFF7CCFF65
:10863000204638BDE472010010B50446FFF7EAFF9A
:10864000204630210AF092FD204610BD70B5044648
:10865000002523682046DB699847A8420FD9236884
:1086600029461B6A204698470646FCF785FA20B93A
:108670001EB1336830465B6898470135E9E7201D35
:10868000FFF7A2FF002523699D420BD263690022F8
:10869000954202D05B680132FAE71868FCF771FF77
:1086A0000135F0E704F11000FFF7A1FF70BDFFFFF7
:1086B0000148FFF7F5BE00BFF00500200148FFF7B5
:1086C000A9BF00BFF00500207047FFFF0023C0F8DE
:1086D0000831024B186803681B681847447401008E
:1086E000024B186803685B68184700BF44740100B8
:1086F000036800215B69184710B40368D3F8A440ED
:108700000023A4461A4640F603415DF8044B604737
:1087100037B5026802ABD2F8A45023F8021D02223A
:1087200041F205410446A84750B9D4F81832BDF8C3
:1087300006201988914203D193F9020003B030BD9D
:108740007F20FBE713B502A961E902230368082231
:10875000D3F8A4400B4640F60141A04702B010BD3B
:1087600013B502A961E9022303680822D3F8A440E3
:108770000B4642F20101A04702B010BD10B40368DD
:10878000D3F8A44006220B46A44642F205015DF848
:10879000044B604713B502AB026803F8011DD2F821
:1087A000A44042F20A010122A04702B010BD13B555
:1087B000ADF803309DF810308DF805309DF8143079
:1087C0008DF8063003688DF80010ADF80120D3F85D
:1087D000A44007226B4642F20B01A04702B010BD35
:1087E00013B503688DF804108DF80520D3F8A44064
:1087F000022201AB42F20C01A04702B010BD10B43E
:108800000368D3F8A4400023A4461A4642F20E019E
:108810005DF8044B60471FB5ADF80430BDF8183063
:10882000ADF80630BDF81C30ADF808300423ADF8C3
:108830000A300623ADF80C300368ADF80010ADF82F
:108840000220D3F8A4400E226B4642F21301A04747
:1088500004B010BD10B4D0F8EC402CB1194610464D
:1088600023465DF8044B18475DF8044B7047F0B59C
:108870001D4603688BB09B6F0F461646044698470B
:108880000AA8721E00F8287D062312F8011F195449
:10889000013BFAD1109B6A1E0DF11701013B0F3508
:1088A00012F8016F01F8016DAA4213F8016F0E74FE
:1088B000F6D123682722D3F8A45042F227010346B9
:1088C0002046A84723682046DB6F98470BB0F0BDD1
:1088D00013B502AB013A03F8081D062112F8014F47
:1088E000CC540139FAD1026842F22B01D2F8A440EB
:1088F0000722A04702B010BD07B503680122D3F8D4
:1089000088306946984703B05DF804FB13B500232F
:1089100000930139CDF80330052311F8014F0DF80C
:10892000034013F1FF33F8D203688DF80620D3F823
:10893000A44007226B4640F60D41A04702B010BD8F
:1089400013B513238DF80630026802ABD2F8A440A9
:1089500023F8041D032240F20641A04702B010BDD7
:10896000C0F8041170470023C0F8043170473AB1D1
:1089700090F81D32934203DD9B1A80F81D32704738
:108980000023FAE710B4D0F8F8300C4623B12046A3
:1089900011465DF8044B184718465DF8044B7047C4
:1089A00010B4D0F8EC300C4623B1204611465DF8E7
:1089B000044B184718465DF8044B704710B4D0F8C4
:1089C000F4300C4623B1204611465DF8044B18479D
:1089D00018465DF8044B7047D0F8FC302BB1D0F846
:1089E0000001003018BF012070470320704710B508
:1089F0004FF4487104460AF0B9FB204610BDFFFF52
:108A00002DE9F843424B04461D6819B12B682846EE
:108A10009B6898473F4E404FDFF800812B682846FF
:108A2000DB689847002870D02B6828465B69984718
:108A3000D4F80831B3F5817F5FFA80F908DBD4F808
:108A400004010023C4F8083110B1314607F080FB5F
:108A5000D4F808315A1C2344C4F8082183F80C9137
:108A600094F80C31022B25D1052AD7DD94F810118A
:108A700094F80F3103EB012304339A42CEDDD4F88E
:108A8000043143B12368D2B2D3F8C090414604F513
:108A900086732046C8470023D4F80811C4F808316B
:108AA0002368D3F8B430013904F20D12C9B220465C
:108AB0009847B3E7042B1CD1032AAFDD94F80E319D
:108AC00002339A42AADDD4F8043143B12368D2B20A
:108AD000D3F8C090394604F586732046C847002372
:108AE000D4F80811C4F8083123680139D3F8BC3030
:108AF000DAE7D4F804010023C4F8083100288DD047
:108B00001022494607F089FB88E7BDE8F88300BFDB
:108B1000447401003E730100667301005373010049
:108B200030B585B004468DF804309DF82030ADF89E
:108B30000010ADF802208DF805300A999DF8243018
:108B40008DF8063006220DF107000BF060FA9DF853
:108B50002C308DF80D309DF830308DF80E302368B4
:108B60000F22D3F8A45042F206016B462046A847D4
:108B700005B030BD30B589B00446ADF80410ADF88D
:108B800006208DF808300D999DF830308DF80930A9
:108B900006220DF10A000BF03AFA9DF838308DF8F4
:108BA0001030BDF83C30ADF81130BDF84030ADF8B4
:108BB0001330BDF84430ADF81530BDF84830ADF88D
:108BC0001730BDF84C30ADF81930BDF85030ADF865
:108BD0001B3023681922D3F8A45042F20D0101ABD7
:108BE0002046A84709B030BDF0B515461688528812
:108BF000AB88111F994287B004464FEA163609D058
:108C0000012E00F21E271DD000F20D11043238464D
:108C10000BF0FDF96A88AB88043A9A422DD1E888B6
:108C2000298883B2042BC1F30B011CD1244B186893
:108C300003681D6A012ED2B20CBF04F2262304F28F
:108C4000151319E0B0F8200200F2222004F21111ED
:108C500020440BF0DCF96A88B4F820321344A4F8FD
:108C600020323D46D6E7052B09D1164B186803681C
:108C7000D2B2DD6804F21513A84707B0F0BD062B89
:108C800004D1104B186803681D69D3E700220392D2
:108C9000ADF8142001228DF80C200622ADF80E202C
:108CA000022203ABADF8102022680093ADF8120049
:108CB000D2F894500A2305222046A847DDE700BFDA
:108CC000687101003075010070B588B004460D462A
:108CD00016460021202268460BF0BDF92A4631468F
:108CE0000DF101008DF800500BF091F9236820225E
:108CF000D3F8A45042F208016B462046A84708B0BA
:108D000070BD70B588B004460D461646002120227D
:108D100068460BF0A0F92A4631460DF101008DF8A6
:108D200000500BF074F923682022D3F8A45042F2CB
:108D300009016B462046A84708B070BD2DE9F041F7
:108D400084B0044600AF884616461D4694F81D229E
:108D500094F81C329A4204D3236820461B69984732
:108D6000F4E702233B712B1DDBB2A7F8073005F1B6
:108D7000100303F4FC73ADEB030D0922391D6846A3
:108D8000A7F80580A7F80B60A7F809500BF03FF98A
:108D90002A46B96A0DF109000BF039F9D4F804310B
:108DA00005F10906E8463BB123680C49D3F8C050E9
:108DB000F2B26B462046A84794F81D32013384F87E
:108DC0001D32074B1868036832469B694146984735
:108DD00000201037BD46BDE8F08100BF18730100C8
:108DE000447401002DE9F04782B000AF1546FA71D6
:108DF00002F104080B3202F4FC72ADEB020D042206
:108E000004469A46A7F8051001230E466846B9188D
:108E10003B710BF0FCF82A46514601A80BF0F7F81D
:108E2000D4F80431E94643B123681749D3F8C05058
:108E30005FFA88F26B462046A847144B186803680F
:108E400042469B69494698474FF6FF73A4F80E3295
:108E50004FF0FF33C4F8103207F0FAFF00F57A75CF
:108E6000B4F80E32B34208D007F0F2FFA84204D2A1
:108E7000236820461B699847F2E7D4F810020837A8
:108E8000BD46BDE8F08700BF2B73010044740100AC
:108E900007B502AB002203F8012D42F22D01012299
:108EA0000248FFF79FFF03B05DF804FB2006002097
:108EB00007B502AB012203F8012D42F22D01034850
:108EC000FFF790FF03B05DF804FB00BF2006002011
:108ED00010B5012386B014460DEB030006228DF871
:108EE00000300BF094F8631E0DF117020F3413F8E5
:108EF000011F02F8011DA342F9D16B46172240F66B
:108F000011410248FFF76EFF06B010BD2006002099
:108F100013B50446684601F0D1F8D4F8EC3063B1DB
:108F2000D4F8F4304BB1D4F8F83033B1D4F8F03091
:108F30001BB10121684601F0C4F86846012101F027
:108F4000D2F86846012101F0C5F86846012101F018
:108F5000D3F82D2101A801F0B2F89DF8040002B069
:108F600010BD2DE9F0411D460368D3F8A48000230D
:108F70000F46164641F201011A460446C04770B931
:108F8000D4F818321A783A70B3F801203280DA78BF
:108F90002A70069A99881180DA88079B1A80BDE8A2
:108FA000F08113B5036869461B6A0446984750B9B7
:108FB000D4F81832D9345A1E053312F8011F04F8B8
:108FC00001199A42F9D102B010BDFFFFF8B503684C
:108FD000D3F8A45000230E46174642F202011A4667
:108FE0000446A847054678B9D4F818321A88328062
:108FF0009B783B7084F81C32044B318818680368F6
:1090000009399B6889B298472846F8BD6871010004
:10901000F0B589B06F460E46144600212022054661
:1090200038460BF018F8711E04AB621E11F8010FE0
:1090300003F8010D12F8010F1874BB42F6D12A682B
:1090400042F21701D2F8A44028462022A04750B986
:109050000E9B1033D5F81822125C03F8012D013055
:109060001028F7D1012009B0F0BD70B50368D3F81E
:10907000A44000230E461A4641F209010546A047C6
:10908000044628B90622D5F8181230460AF0BFFF68
:10909000204670BD70B50368D3F8A44000230E4687
:1090A0001A4642F218010546A047044628B908228C
:1090B000D5F8181230460AF0AAFF204670BDFFFF0F
:1090C0002DE9F0411678052EB2B0054614461DD1A3
:1090D0009F4B52791868B4F8031003685B6A98478D
:1090E0009C4BB4F80310186862790368C9B25B69D5
:1090F0009847994B186803689B68984718B10121F5
:109100009648FFF747FB32B0BDE8F081082E64D1E6
:109110008F4BB2F8031052791D68002A58D02846A8
:10912000FEF7A1FAC10734D505F18708404601F0E2
:10913000EAF9404601F0EBF928B332AF05F19802A5
:1091400007F8446D102312F8011BD955013BFAD1E1
:10915000B4F803108148009711230622FFF7EEFDB3
:1091600009237F4AADF884300623F91812F8010F5D
:109170004870013BF9D1B4F80310784800970823F0
:109180000622FFF7DBFD404601F0C5F9404601F03D
:10919000C6F92B68B4F803109B6E802228469847C6
:1091A00095F8853023B12B682846D3F8803098474E
:1091B00095F88430002BA6D02A1DB4F80310674818
:1091C00000920422FFF7BAFD002385F884309AE765
:1091D0002B6828469B6E984795E70E2E0ED1B2F865
:1091E0000330A0F80E325379C0F8103253780634A9
:1091F000043B80F81432C0F8184284E70F2E09D1DE
:109200009388A0F80E329378C0F81032002380F8CB
:10921000143278E7132E12D193780734D61C04EB5E
:1092200083040436B4423FF46EAF2B6836F8022C48
:10923000D3F8B83036F8041C28469847F1E73E2E9C
:109240007FF461AF9378013B092B3FF65CAF01A23D
:1092500052F823F0D39200001D9300000791000004
:1092600007910000659300001D9400000791000025
:10927000499400004F9500007D920000E378002B98
:109280007FF441AF324B94F820701868A279E379EB
:10929000A18806680497E78B0397A78B0297678BD3
:1092A00004F10805CDE90057F669B047294B94F859
:1092B00020701868A279E379A18806680497E78B83
:1092C0000397A78B0297648BCDE90054B468A0473D
:1092D00019E7E378002B7FF416AF1D4B277D186844
:1092E000A279E379A18806680497678A0397278A99
:1092F0000297E78904F10805CDE90057F669B04700
:10930000144B277D1868A279E379A1880668049731
:10931000678A0397278A0297E489D5E7237B1F2B67
:109320003FF6F1AEE278012A7FF4EDAE0A4A2179E8
:10933000106862790568E61896F90D60029604F1E6
:109340000D06CDE90036A31DAD6BA847DBE600BFD7
:10935000687101003075010068720100200600206C
:10936000F3060020914BB4F803101E68336810AA6E
:109370001B6F30469847B4F803103046FEF773F978
:10938000C2072CD5102200210DF186000AF063FEE1
:109390002379E27842EA032232AB102423F8442DE9
:1093A000834A12F8010F1919013C4870F9D12A6853
:1093B00042F21A01D2F8A46028461222B0470028CF
:1093C0007FF4A1AE0322D5F818128DF81C4007A82F
:1093D0008DF81D408DF81E400AF019FE93E63368A3
:1093E000B4F80310DB6F0BAA304698472B68714A1C
:1093F000D3F8A83078B10BA928469847C0B2002806
:10940000C0D12B680222D3F8A46042F21B01E31CF6
:109410002846B04777E60DF14101EDE7E11C0A224D
:1094200021A80AF0F4FD0F23ADF88E3040F6FF734B
:10943000ADF890302B680E22D3F8A44042F2200100
:1094400021AB2846A0475EE694F80380B8F1000FF0
:109450007FF459AE10AF04344122414638460AF039
:10946000FAFD0C23214640220DF141008DF84030D9
:109470000AF0CDFD2146402205F144000AF0C7FD67
:109480004A4B1E683046FEF7DDF8082804463FF6D2
:109490003AAE41230622014600974748FFF74EFCAB
:1094A00021463046FEF7DFF8336840F004029B6E39
:1094B000D2B22146304605F1A406984731463E48CF
:1094C000FFF7E8FD05F1AC013B48FFF7E3FD412262
:1094D000414621A80AF0BFFD374829AA0123F95CBB
:1094E00002F8011DC1180133C97882F82010212B20
:1094F000F5D10BAD1122002128460AF0ACFD0DF18B
:109500002D0703238DF82C3021AA412331460097E3
:109510002A4800F0CBFE2B46294607AA13F8010F74
:1095200001F8010D9142F9D1102238460AF06FFD81
:1095300021460095112306221F48FFF7FFFB204B11
:10954000402242F22601181FFFF74CFCDBE5E378CE
:10955000002B7FF4D8AD154B1F683846FEF772F824
:10956000082806463FF6CFADE31CD335233413F865
:10957000012F05F80129A342F9D131463846FEF7FB
:1095800072F83B6840F0080204469B6ED2B2314646
:1095900038469847E3067FF5B6AD0A4B0A4A186885
:1095A000036831469B6A9847ADE500BF68710100CA
:1095B000F9060020FA06002020060020600A00209C
:1095C0002406002030750100A40600202DE9F74F85
:1095D000DFF8E8A0DAF8F000884693460025002876
:1095E00067D002AC042004F8055D09F0D2FD814685
:1095F000042009F0CEFD0746042009F0CAFDDAF880
:10960000F0A0034606463A4620464946D0472C4637
:109610009DF80330AB4232DD4FEA850A0CBB31685E
:10962000254851F8251001AB424600F0BDFD98F8E1
:1096300003209DF804309A4213D198F804209DF835
:1096400005309A420DD19DF8062098F805309A42CF
:1096500007D13B68062253F80A1058460AF0D7FC97
:1096600001243B6853F80A0008B109F081FD336812
:1096700053F80A0008B109F07BFD0135C8E7D9F8B5
:10968000000008B109F074FD4846042109F06EFDA0
:10969000386808B109F06CFD3846042109F066FD10
:1096A000306808B109F064FD3046042109F05EFD20
:1096B000204603B0BDE8F08F600A0020200600209D
:1096C0002DE9F0410546D0F8040116461C4600B3CA
:1096D00006F02FFD013CDFF840802644A642D5F875
:1096E00004010DD014F8017F0F2F02D8414606F077
:1096F00020FD10223946D5F8040106F08CFDEDE777
:1097000006F020FDD5F804010368BDE8F041DB68F0
:109710001847BDE8F08100BFBB720100084A026033
:109720000022C0E93B22C0E93D22C0F8FC20C0F87D
:109730000021C0F80421C0F8082180F81D227047DC
:10974000807301000148FFF7E9BF00BF2006002039
:10975000704770474FF0FF30704710B50421044642
:1097600009F004FD204610BD00F1080370B5044661
:1097700003600E46B1B108460BF036FA0F280546D5
:1097800004D9013009F005FDA5602060012D206895
:109790000BD196F9003003702368656000225A559A
:1097A000204670BD044809F005FD002DF4D02A467E
:1097B00031460AF02CFCEFE7D4740100034653F85D
:1097C000080B984201D009F0CFBC704710B5154B7B
:1097D000154C16498EB00022C3F8042102A8C3F824
:1097E0000821C3F80C2108AAFFF7BEFF2046032278
:1097F0004FF4E13101F070FA01AA0D4908A8FFF712
:10980000B3FF0C4B02AA08A9204601F0F7F9044661
:1098100008A8FFF7D3FF02A8FFF7D0FF20460EB03D
:1098200010BD00BF44090020640A0020D374010069
:109830007A7401008574010010B590B00C460AAA34
:109840000C4904A8FFF790FF03AA0B490AA8FFF7E9
:109850008BFF0A4B009304AA094B01940AA90948FB
:1098600001F0CCF90AA8FFF7A9FF04A8FFF7A6FFAB
:1098700010B010BDD37401005F7401006E7401005C
:1098800069740100640A002030B58FB008AA13493A
:1098900002A8FFF769FF124BD3F80C413CB1D3F893
:1098A0000C4102A8FFF78AFF20460FB030BD01AA85
:1098B0000C4908A8FFF758FF0B4B0C4802AA08A94F
:1098C00001F09CF9054608A8FFF778FF002DE8D0C5
:1098D00002980AF0F8FA0446E3E700BFD3740100E7
:1098E00044090020B2740100C1740100640A002020
:1098F00070B58EB008AA394902A8FFF735FF384B7A
:10990000D3F80C511C46F5B1D3F80C213AB94FF0FD
:10991000FF3402A8FFF752FF20460EB070BDD3F807
:1099200008219C5CD3F808214FF481700132B2FB0E
:10993000F0F100FB1122C3F80821D3F80C21013A01
:10994000C3F80C21E5E7274E274986F88C5001AA79
:1099500008A8FFF709FF3046244B02AA08A901F026
:109960004DF9064608A8FFF729FF002ECFD0DDE904
:1099700002064FF48171B542D4F80C3116D0B3F51C
:10998000817F11D0D4F80431425DE254D4F804311F
:109990000133B3FBF1F201FB1233C4F80431D4F804
:1099A0000C310133C4F80C310135E4E7002BAED0A3
:1099B000D4F80831D4F80821E35C01324FF4817007
:1099C000B2FBF0F100FB1122C4F80821D4F80C21FD
:1099D000013AC4F80C211C469BE700BFD374010078
:1099E00044090020640A00204874010052740100F8
:1099F00030B591B014460D460AAA114904A8FFF7E4
:109A0000B3FE03AA0F490AA8FFF7AEFE0E4B01945E
:109A100004AA0AA900930D480D4B00F0B3FD0AA853
:109A2000FFF7CCFE22462946084801F097F80028A7
:109A300004A808BF0024FFF7C1FE204611B030BDC6
:109A4000D374010093740100A5740100640A00201E
:109A50009E74010010B5094C4FF48172002120461C
:109A60000AF0F9FA0023C4F80431C4F80831C4F844
:109A70000C31034B034A1A6010BD00BF440900209B
:109A80004009002008750100704770478180C2803E
:109A900070470181704781727047807A003018BF2B
:109AA00001207047704710B50C21044609F05EFB99
:109AB000204610BD2DE9F0431C461B78012BA5B0B4
:109AC00080460D4640F0898003685B6A9847B24B38
:109AD0001E68B24B81461F6814AB002869D098F805
